:0400000002005B326D
:01000B0032C2
:0100130032BA
:01001B0032B2
:0100230032AA
:01002B0032A2
:01003300329A
:01003B003292
:01004300328A
:01004B003282
:01005300327A
:10005B0075A8007801E4F608B500FB75817F740084
:10006B00C0E07400C0E012032A5003120343E412F1
:10007B00F11FC211D2127481C0E07400C0E03011C4
:10008B002BC2D512F233B420028013B420004009E6
:10009B00F523D2D512017D801EC210C21122E52399
:1000AB000200C22212F22A301208C21220120312CC
:1000BB00017DC2D512F23320E7F8B40A0280F3B403
:1000CB000D02800DB4200050082012E612F325809B
:1000DB00DBB43A0302048DB43B0302019CB423034B
:1000EB0002019CB42A0302019C30120AB40D028057
:1000FB00C112017DC21220110612F22A12F883B42A
:10010B00200280AEB40D0302017CF523B44D030233
:10011B00052FB444030205F0752200B44703020116
:10012B00B0B45303020247F5F0D2D512F233B40D3B
:10013B00028007B4200050F18034E5F0B44903028B
:10014B0001A9B43F03020312B44803020312B443E0
:10015B00030201D9B456030201E274051204011221
:10016B00F20775240075250075260075270075228A
:10017B000022C0D0C082C083C0E085258385248245
:10018B0012F347743E12F22AD0E0D083D082D0D043
:10019B0022C2D512F233B4200050F6D21222900FA5
:1001AB007912F3F122D2D512F3A15011B40D03023F
:1001BB000363B420004005740112040122B40D0244
:1001CB00800512F23380F689258824020363900E92
:1001DB00D012F3F102034378009002FDE823C00034
:1001EB00C0E093F9D0E0A393F5828983E41206472C
:1001FB00120233D00008B805E090030E12F3F1742D
:10020B003D12F22A85258385248212F34712F325AA
:10021B0090085AE412F3F1E8242B12F22A1202335B
:10022B0008B80DEC12F32522743D12F22AE82428AB
:10023B00F9E712F24C90030712F3F122D2D512F226
:10024B003312F883B42000402AB4200280F07828BF
:10025B00B44102801F08B44202806308B45002808C
:10026B002AB4440280331202E1B4200050F8740A1D
:10027B00120401221202E1B443028007B45202803D
:10028B002F80E31202E1B443DD80331202E1B45359
:10029B00D51202E1B457CF80251202E1B450C71238
:1002AB0002E108B44802801608B44C02801080B6F4
:1002BB0012F35440B1B4080050AC282405F8C00028
:1002CB0012F3654005E8D000F622D000B4200040C0
:1002DB00A2740602040112F23312F883B40D0280E9
:1002EB0006B42000400722158115818081158115E8
:1002FB0081220C12030B0C0A0B4D0B4A2020200001
:10030B002020C220504300900EE512F3F1781674B2
:10031B002D12F22AD8F912F325900EFD02F3F1906B
:10032B00FFF08583A0A882E493F5F0E2B5F007A374
:10033B00E58370EEC322D322E412F75AC0D0C082F9
:10034B00C083C0E090F000E493F0A3E58370F8D095
:10035B00E0D083D082D0D022852583852482E070A3
:10036B0016A3E07012A3E0700E740712040185252A
:10037B008385248202F347712A4076900EC312F3D1
:10038B00F185258385248212F34712F325C0D0749F
:10039B00D5C0E07403C0E074F5C0E074FFC0E08525
:1003AB002583852482C082C083852C82852B8385FF
:1003BB0029F0852AD0E528A82DA92EAA2FAB30AC81
:1003CB0031AD32AE33AF3402FFF5882D892E8A2F33
:1003DB008B308C318D328E338F3485D02A85F0293A
:1003EB00F52885822C85832BD0D0900EBB12F3F190
:1003FB00227408020401700122C0E0900DDC12F39C
:10040B00F1D0E0B40B004010C0E0900EAA12F3F153
:10041B00D0E012F26E02F32523900DC62582F582F1
:10042B00E5833400F583E493C0E0740193F582D047
:10043B008312F3F102F325D2D512F3A15008B40DB8
:10044B0002803D020471B420028006892588248035
:10045B002F89258824D2D512F3A1500CB420028009
:10046B001FB40D02801AD32289278826D210E525C6
:10047B00B52705E524B5260040067526FF7527FF31
:10048B00C322E4FEF520F521C2D51205174025FF46
:10049B00120517401FFB1205174019FC8B258C24E6
:1004AB00120517400FB400028011B40102800AD26A
:1004BB000A0204F9D2080204F9D200EF601A8B8306
:1004CB008C8212051740EDF5F0F0E0B5F005A3DFD7
:1004DB00F18005D20B0204F912051740D7EE600428
:1004EB00D209800A200003D21222C2126163740166
:1004FB001008117402100A0C7403100B077404100B
:10050B00090274FF910112F207C21222C0F012F31A
:10051B0054400EC4F5F012F354400645F0CE2ECEE7
:10052B00C3D0F02220110FC21091425009B4200009
:10053B00405D74068101C2117A10C0028525838546
:10054B00248212F3471205A21205C512F325D0021D
:10055B00A925A824E5242410F524E5253400F52548
:10056B00E501B52505E500B52400502330980EE5CF
:10057B0099C298B42002801CB41B02801220100375
:10058B00DAB822E525B52705E524B5260040ABC230
:10059B0011C21022D21122742012F22AC082C083FF
:1005AB007A10E0A312F24CBA0904742D8002742065
:1005BB0012F22ADAEDD083D08222C082C083742754
:1005CB0012F22A7A10BA0805742D12F22AE0A3B49B
:1005DB001F005002742E12F22ADAEA742712F22A42
:1005EB00D083D0822220110FC21091425009B42027
:1005FB0000404474068101C2117A16C0028525831E
:10060B0085248212F3471208DD12065B1206AC1228
:10061B00F325120925D00230980AE599C298B42027
:10062B0003D2112230100EE525B52705E524B5269A
:10063B000040C88002DAC4C210C21122C0E093107D
:10064B00E70812F22AD0E00480F212F22AD0E0225C
:10065B00C082C083E0A37D01F8FC54F003C0E0E846
:10066B00A2E3400A540FB407011454078002740725
:10067B00D00048FB900A1D937807900A9DC0E09329
:10068B0030E707C2E712F22A800912F22AD0E018EB
:10069B000480EAD0E0742012F22AD8FBD083D082F7
:1006AB002290099DEB93C0E0F874CBC0E07406C0B8
:1006BB00E0E8C4540F6005239007A273D0E0D0E0AC
:1006CB00D0E0540F600CF8742C12F22AE823900738
:1006DB00C27322744102F22A744012F22AEC5401C2
:1006EB00FC745212F22AEC540702F2411207001268
:1006FB00091002F24C742312F22A80F374FAC0E050
:10070B007406C0E080E9744302F22A90071C02F3DE
:10071B00F141420090072712F3F1800940412B0071
:10072B00744012F22A90073602F3F14450545200EF
:10073B0090074102F3F140412B504300742F12F20A
:10074B002A120910F820E70875F00884242080325B
:10075B00A2E392D5F5F05407C5F054700345F03081
:10076B00D509900C4693900C868007900D4893907A
:10077B000D886002C147E8C2E775F0088423232384
:10078B002480120845742E12F22AE5F0540702F267
:10079B0041020819020842C1DDC1DEC1ECE14CE1A6
:1007AB0047E19FE100E1EDE130E12BE11FC1E3E126
:1007BB0011E19CE107E116C1DDC1DEC1ECE14CE1C9
:1007CB0047E19FE100E1EDE1E6E12BE11FE13BE1D8
:1007DB0011E1E2C1E3C1F7F19F8002F100742C1229
:1007EB00F22A120910F58275830030E7037583FF37
:1007FB00E5822524F582E5833525F583120933F847
:10080B00E58228F582E5833400F58302F34712096C
:10081B0010F9852583852482E5822402F582E58300
:10082B003400F583850182E58354F8F8EC54E0C479
:10083B000348F58302F347120910F820E714B408B4
:10084B0000400302F24C90085A12F3F102F24141BC
:10085B005200900C42B487030206475407B40002BF
:10086B008035B40102804FB406030208D9B40703E4
:10087B000208D9E854F8B48802802CE820E34F90A2
:10088B000B2AE854700303F5F0E81414540345F0F5
:10089B0093900B4A020647900BE0E8030303540FB7
:1008AB0093900BF0020647900C1FE814145403931B
:1008BB00900C23020647900C2FE8B4A8028002503C
:1008CB000D14030303540793900C34020647E802FC
:1008DB00F24CC082C083C000C001120933F8232838
:1008EB00F9852583852482742012F22AE0A312F263
:1008FB004CD8F4742012F22A09B90BF7D001D000AE
:10090B00D083D08222852583852482E5822DF582B2
:10091B00E5833400F5830DE0A3221209332524F57A
:10092B0024E5253400F52522C000C082C08385252F
:10093B0083852482E075F0048490095D93A8F0B858
:10094B000002800503031880F65403D083D082D0B5
:10095B000022795955557B5955555B5A55555B5A5C
:10096B005555EA5A5555EA5A5555EA5A55556AAEF0
:10097B00AAAA6AADAAAA6B5A55556AA5AAAA6AFF72
:10098B00FFFF6A5955556A5DAAAA595955555959C8
:10099B00555500D0E0101050B02037D0E01010505B
:1009AB00B02037D0001016151E1237D000101615B8
:1009BB001E1270D0515616151E1270D051561615A8
:1009CB001E1270D0515616151E1270D0C3A016569B
:1009DB00B62670D0C31BF0555E528FD03C1A16153D
:1009EB001E12C4D0C380F000B525C4D030C0181D72
:1009FB00B82850D030C010151E1250D030C0105730
:100A0B001E2719D01E1E10151E1291D0B1B11051F8
:100A1B00B1218774783100000000676A6F330303DC
:100A2B0003036274802C06060606646A832E09098A
:100A3B0009095D742626262626265F6A232323238F
:100A4B0023235374292929292929566A26753A3AC9
:100A5B003A3A7C74233D143A3A3A3A6A3A3D0D0DD0
:100A6B000D0D26743A00118A3A3A236A20205959FF
:100A7B00595945741919364C4C4C496A1C1C17555D
:100A8B004F5541744141193A3A3A416A4141203A32
:100A9B003A3A494EC34445C34144C4414444C35309
:100AAB005542C24D55CC4449D644C1434CD2534513
:100ABB0054C24350CC414ECC4F52CC5852CC52CC5A
:100ACB00524CC352D25252C3535741D04D4FD64DB5
:100ADB004F56C34D4F56D8505553C8504FD058430F
:100AEB00C8584348C44ADA444A4EDA434A4EC54AC8
:100AFB00C34A4EC34AC24A4EC24A42C34143414C07
:100B0B00CC4C43414CCC414A4DD04C4A4DD0534A2E
:100B1B004DD05245D4524554C94E4FD03F3FBF00E4
:100B2B0003060A0F14191D21262B2E32373C424681
:100B3B004B5055595E63696E73787C81868B9044FC
:100B4B0050CC4450C8474D4FC454464946CF4443FC
:100B5B004F4EB044434F4EB1424155C4414452B045
:100B6B005341524CB053415248B04946D341445281
:100B7B00B15341524CB153415248B1534C4F545461
:100B8B00CD414452B24441524CB044415248B04220
:100B9B004B4F46C6414452B34441524CB14441526F
:100BAB0048B1544344434ED4414D534BB04243524E
:100BBB004CB042435248B0505242D3414D534BB1CB
:100BCB004243524CB142435248B152464946CF4D33
:100BDB0059534C4FD4000206080C0E101214161A5F
:100BEB001D22252A2B50B054434FCE50B153434FA7
:100BFB00CE50B249C550B349D050B449454EB1500F
:100C0B0053D754535441D44143C352535441D4C288
:100C1B0049504EB100030609544CB0544CB15448E2
:100C2B00B05448B1000206080C53D0544D4FC45079
:100C3B00B5534255C650B650434FCE0104070A0D6B
:100C4B00101316191B1D202326292C2F3235383B48
:100C5B0000003D3F4245484B0000004D52575C6140
:100C6B006600006B6E7175787C7E83868B8F939696
:100C7B009A9CA1A4A9AEB3B8BD0000804954B04959
:100C8B0045B04954B14945B15452B05446B0545291
:100C9B00B15446B152C954C95242B85442B85245E4
:100CAB00CE534DB2534DB1534DB04558B04554B0E2
:100CBB004558B14554B145D345C15058B05054B0C7
:100CCB005058B15054B150D345475352D645475362
:100CDB0052C545444D41B045475354D645444D410B
:100CEB00B145475354C5444DC15445CE54464EC6E9
:100CFB005444CE544344D455D24E4F4143CB4C4E27
:100D0B00C948414245CE475245CE52464EC5524444
:100D1B00CE435243C541C552434142D44F56D250A4
:100D2B00475352D650475352C550444D41B050478C
:100D3B005354D650444D41B150475354C500000055
:100D4B000000000000171B1F2225282B00000000AD
:100D5B0000000000000104070B0F11131500000029
:100D6B0000000000002F00303235383A3C00000004
:100D7B00000000000000000000000000008052583E
:100D8B00C45458C4494E54B0494E54B154B054B1E4
:100D9B0057D252C4475258C4475458C44445CE54F2
:100DAB0058C35258C3484CC4484C44C1D04FD65278
:100DBB0053B05253B146B041C343D900000DE50DBA
:100DCB00F70E0E0E250E380E480E5A0E6E0E830EB3
:100DDB00953F3F4552524F523A00696C6C656761C3
:100DEB006C2063686172616374657200756E7375F4
:100DFB0070706F72746564207265636F726474795E
:100E0B0070650052414D2076657269666965642094
:100E1B00696E636F727265637400636865636B738D
:100E2B00756D20696E636F727265637400756E6B9E
:100E3B006E6F776E20636F6D6D616E6400696C6CA5
:100E4B006567616C20706172616D65746572006EAF
:100E5B006F20636F646520617420616464726573D5
:100E6B00732000626F6F74636F6465206F766572B9
:100E7B007772697474656E0076657273696F6E2034
:100E8B00696E636F727265637400756E73757070E3
:100E9B006F72746564207265676973746572007331
:100EAB00797374656D206661696C757265202300BA
:100EBB000D72656164790D007374617274696E678C
:100ECB002061742000636C656172696E6720636FCB
:100EDB0064656D656D6F72790D004D43423135322E
:100EEB00204B69636B73746172742076312E30639F
:100EFB000D0068656C7020202020203F0D636C6511
:100F0B0061726D656D20430D64697361736D202093
:100F1B002044205B73746172745D205B656E645D4D
:100F2B000D676F2020202020202047205B737461E9
:100F3B0072745D0D6D6F6E69746F7220204D205B46
:100F4B0073746172745D205B656E645D0D736574A3
:100F5B0020726567202053207265672076616C755F
:100F6B00650D766965772072656720560D004D43D8
:100F7B00423135322064657369676E65642062792E
:100F8B002057616C746572204D61636869656C7381
:100F9B00202D204F4E3441574D0D4B49434B53544D
:100FAB0041525420636F646564206279204A6F61FB
:100FBB006368696D20456C656E202D204F4E314462
:040FCB0044530D007E
:10F000004B49434B0100F0EF02000002FFF002F712
:10F010005102F74602F70C02F75A02F77802F7326C
:10F0200002F73C02F72702F79102000002F7DE0226
:10F03000F82A02F70202F11F02F10C02F22A02F290
:10F040003302F32502F32E02F25E02F26E02F29117
:10F0500002F24102F24C02F25402F34702F3F102CF
:10F06000F3FF02F3C602000002F3D602F35402F3E8
:10F070006502F3A102F40C02F20702F44502F45B0C
:10F0800002F48D02F4B102F4D402F4FC02F5410260
:10F09000F5D602F61502F65402F6AD02F6C60200E7
:10F0A0000002F88302F89302F8A202F8AF02F8BE59
:10F0B00002F8F402F92602F94C02F95202F96F0043
:10F0C0000000000000000000000000000000000040
:10F0D0000000000000000000000000000000000030
:10F0E0000000000000000000000000000000004BD5
:10F0F00049434B206C696272617279206279204ABF
:10F100006F616368696D20456C656E00C28EF58D18
:10F11000F58B758921758780759852D28EC32270C0
:10F12000EBC000C001C002C003C004C005C006C0DF
:10F1300007C0A8C2AF741412F70C75891175880046
:10F14000758B00758D00D2B020B0FDA98DA88B7590
:10F150008B0D758D00D28E208FE030B0FBC28EA952
:10F160008DA88B758B0D758D00D28E208FCC20B025
:10F17000FBC28EAB8DAA8B758B0D758D00D28E2048
:10F180008FB830B0FBC28EAD8DAC8BAF8DAE8BEE39
:10F190002502FEEF3503FFEE2500FEEF3501FFE906
:10F1A000B50505E8B504004004A905A804E9B503C0
:10F1B00005E8B502004004A903A802E854F078016C
:10F1C000D6C4FDC313C9C41354F8F8EEC39500FEAA
:10F1D000EF9501FF85078D85068BE58D30E70C7572
:10F1E0008840308FFD75880030B0FBEDF404601569
:10F1F000310CD0A8D007D006D005D004D003D0025F
:10F20000D001D00022213A5388CC5389F0438901A0
:10F21000758A00758C80D28C208D0A3098FAC2983D
:10F22000E599C380E2C28CC28D223099FDC299F566
:10F2300099C3223098FDE599C29830D502512AC36E
:10F2400022C0E012F8A2512AD0E0C322C45141C426
:10F250005141C322C5F0514CC5F0514CC322C0E00E
:10F26000540FC3D440042430512AD0E0C322C0E05C
:10F27000C000C0F0780075F00A84C0F00870F7D0C4
:10F28000F0E5F02430512AD8F6D0F0D000D0E0C319
:10F2900022C0D0C082C083C0E0C000C001C002C094
:10F2A00003C004C0F0A9F0A8E0D2D575F00090F337
:10F2B00019C0E0E493C0E0740193FAD0E0FBD0E021
:10F2C000E5822402F582E5833400F583E5037007C7
:10F2D000E502700302F2FA7C00C30CE89AF8E99B9D
:10F2E000F950F71CE82AF8E93BF9BC000320D5C126
:10F2F000C2D5EC5141E405F080B7E5F07005E4516A
:10F30000417401D0F0D004D003D002D001D000D09D
:10F31000E0D083D082D0D0C322271003E80064005D
:10F320000A00010000C0E0740D512AD0E022C0E0C4
:10F33000C0007808F5F0E5F033F5F0E43430512AF8
:10F34000D8F4D000D0E022C0E0E583514CE58251F2
:10F350004CD0E0225133C0E012F8BE40751581C395
:10F3600022D3D0E022E4F871545005B4201580F780
:10F3700012F387400E715450F7B420028007B40D89
:10F38000028002D322C322B410005013B8100050E0
:10F390000EC0F0F5F0E8C445F0F8D0F0C3E422D395
:10F3A0002278007900E471545005B4201580F712DA
:10F3B000F926400E715450F7B420028007B40D02B4
:10F3C0008002D322C3225133C0E012F8AF400315AC
:10F3D0008122D3D0E022C0E07800790071C64007D6
:10F3E00012F8F4400880F57004C3D0E022D3D0E0D6
:10F3F00022C0E0E4936005A3512A80F7D0E022C048
:10F40000E0E06005A3512A80F8D0E022C001A90005
:10F410005133B40814B9000280F6E58319158294BB
:10F4200000F5837408512A80E7B40D028012B800F9
:10F43000028007F0512AA309D8D67407512A80D038
:10F44000E4F0D00122C082C083C0E0E06005E4F0B7
:10F45000A380F8C3D0E0D083D08222C0E0C082C0B5
:10F460008378007900E0601DC082C0838983888230
:10F47000A3A983A882D083D082A3E58370E7E58225
:10F4800070E3D38001C3D083D082D0E022C082C099
:10F4900083C0E08001A3E06010B47B0050F7B4614A
:10F4A0000040F2C39420F080ECC3D0E0D083D0823F
:10F4B00022C082C083C0E08001A3E0600FB45B0083
:10F4C00050F7B4410040F22420F080EDC3D0E0D0EA
:10F4D00083D08222C082C083C000C001C0E0C0A02F
:10F4E00089A0E2F06008A308B800F70980F2D0A074
:10F4F000D0E0D001D000D083D082C322C082C083AC
:10F50000C000C001C002C003C0E0E8FA7B00915B0C
:10F51000401AE9B503005006E8B502004011A9837E
:10F52000A882E82AF8E93BF991D48005D3800391B9
:10F5300045C3D0E0D003D002D001D000D083D08228
:10F5400022C000C001C002C003C004C005C006C084
:10F5500007FFAB83AA82AD83AC82EC28FCED3400BC
:10F56000FDC000915BE58228F582E58339F583A92A
:10F5700083A882D0E02582F582E5833400F5838973
:10F58000A0E2F0E583B50507E582B504028018E541
:10F5900082C39401F582E5839400F583E8C3940166
:10F5A000F8E99400F980D8E582C39401F582E583F7
:10F5B0009400F583EFF0E583B50307E582B5020219
:10F5C000800280E3D007D006D005D004D003D0025B
:10F5D000D001D000C322C082C083C000C001C0E0FF
:10F5E000C0A0C00289A0E0FAE2B502166017A3C06D
:10F5F00082C08389838882A3A983A882D083D08292
:10F6000080E2D38001C3D002D0A0D0E0D001D000EE
:10F61000D083D08222C082C083C000C001C0E0C0BD
:10F62000A0C00289A0E0FAE2601AB50214A3C08269
:10F63000C08389838882A3A983A882D083D0828053
:10F64000E2D38001C3D002D0A0D0E0D001D000D05E
:10F6500083D08222C082C083C002C003C004C00520
:10F66000AB83AA82AD01AC008D838C82915BE97083
:10F6700007E8700302F69B8B838A82A905A804E041
:10F680006019D1155003A380F6A983A882D005D0B4
:10F6900004D003D002D083D082C322A903A802D011
:10F6A00005D004D003D002D083D082D322C082C040
:10F6B00083C0E0E58228F582E58339F583D00091A7
:10F6C000FCD083D08222C082C083C000C001915B85
:10F6D000E58228F582E58339F583D001D00091D405
:10F6E000D083D08222C082C0832582F582E5833414
:10F6F00000F583C000C001915BD001D000D083D061
:10F70000822230EA04E5F480F9C2EF2260185389BE
:10F71000F0438901C28DC28C758CDC758A0CD28C49
:10F72000308DFDD5E0EE22B2970000E493B2970051
:10F730000022B2970000E0B297000022B2970000CA
:10F74000F0B297000022B2970000D8FEB2970000F6
:10F7500022E4F5A8B297000080FEC082C083C000FA
:10F76000C00190000078007900F0A3D8FCD9FAD04D
:10F7700001D000D083D08222D002D001AB81E478C6
:10F78000FFF618B803FB8B81C001C002F8F9FAFB41
:10F7900022C082C083C000C001C002C003C0E0EB31
:10F7A0007007EA700302F7CE89A0E493F2C082C02A
:10F7B0008389838882A3A983A882D083D082A3EA85
:10F7C000C39401FAEB9400FBEB70DDEA70DAD0E051
:10F7D000D003D002D001D000D083D082C322C08217
:10F7E000C083C000C001C002C003C0E0EB7007EAE4
:10F7F000700302F81A89A0E0F2C082C0838983886E
:10F8000082A3A983A882D083D082A3EAC39401FAF9
:10F81000EB9400FBEB70DEEA70DBD0E0D003D002AB
:10F82000D001D000D083D082C322C0E0C082C08388
:10F83000C000C001C002C003C0F0C3EB7007EA7093
:10F840000302F86EE0F5F089A0E2B5F024C082C0B2
:10F850008389838882A3A983A882D083D082A3EAE4
:10F86000C39401FAEB9400FBEB70D9EA70D6C38025
:10F8700001D3D0F0D003D002D001D000D083D08209
:10F88000D0E022B47A0280025008B461004003C381
:10F89000942022B45A0280025007B441004002244E
:10F8A0002022540FC3940A40022407243AC322C3DF
:10F8B00094304008940A5004240AC322D322C00181
:10F8C000C000C082C0831183F990F8E378FF08E894
:10F8D000936006B501F8E88001D3D083D082D000D0
:10F8E000D001223031323334353637383941424352
:10F8F00044454600C002C003C004C0E0C0E07C092B
:10F90000AB01AA00E82AF8E93BF9400EDCF6D0E0AA
:10F9100028F8E93400F940048003D0E0D3D0E0D0E7
:10F9200004D003D00222C0E0E9B41000501AC4543D
:10F93000F0F9E8C4C0E054F0F8D0E0540F49F9D031
:10F94000E0540F48C8C3E422D0E0D32278FF79FF07
:10F95000C322C082C083C0E090FA0068F582E493BD
:10F9600069F80583E493F9D0E0D083D082C322C044
:0BF97000E0E8F4F8E9F4F9D0E0C3226D
:10FA00000089129B24AD36BF48C15AD36CE57EF7FE
:10FA10008108931AA52CB73EC940DB52ED64FF76EE
:10FA2000028B109926AF34BD4AC358D16EE77CF5DE
:10FA3000830A9118A72EB53CCB42D950EF66FD74CE
:10FA4000048D169F20A932BB4CC55ED768E17AF3BE
:10FA5000850C971EA128B33ACD44DF56E960FB72AE
:10FA6000068F149D22AB30B94EC75CD56AE378F19E
:10FA7000870E951CA32AB138CF46DD54EB62F9708E
:10FA800008811A932CA53EB740C952DB64ED76FF7E
:10FA900089009B12AD24BF36C148D35AE56CF77E6E
:10FAA0000A8318912EA73CB542CB50D966EF74FD5E
:10FAB0008B029910AF26BD34C34AD158E76EF57C4E
:10FAC0000C851E9728A13AB344CD56DF60E972FB3E
:10FAD0008D049F16A920BB32C54CD75EE168F37A2E
:10FAE0000E871C952AA338B146CF54DD62EB70F91E
:10FAF0008F069D14AB22B930C74ED55CE36AF1780E
:10FB000000112332465765748C9DAFBECADBE9F8FD
:10FB100010013322564775649C8DBFAEDACBF9E8ED
:10FB20002130021367764455ADBC8E9FEBFAC8D9DD
:10FB30003120120377665445BDAC9E8FFBEAD8C9CD
:10FB40004253617004152736CEDFEDFC8899ABBABD
:10FB50005243716014053726DECFFDEC9889BBAAAD
:10FB60006372405125340617EFFECCDDA9B88A9B9D
:10FB70007362504135241607FFEEDCCDB9A89A8B8D
:10FB80008495A7B6C2D3E1F008192B3A4E5F6D7C7D
:10FB90009485B7A6D2C3F1E018093B2A5E4F7D6C6D
:10FBA000A5B48697E3F2C0D129380A1B6F7E4C5D5D
:10FBB000B5A49687F3E2D0C139281A0B7F6E5C4D4D
:10FBC000C6D7E5F48091A3B24A5B69780C1D2F3E3D
:10FBD000D6C7F5E49081B3A25A4B79681C0D3F2E2D
:10FBE000E7F6C4D5A1B082936B7A48592D3C0E1F1D
:10FBF000F7E6D4C5B1A092837B6A58493D2C1E0F0D
:10FFF000E4C0E0C0E0B2970000224B49434B01004F
:00000001FF
