:03000000020100FA
:030023000202CA0C
:03002B0002065C6E
:0300330002064979
:030043000207B8F9
:03004B0002079B0E
:0300530002064959
:10010000E4F5A8F5C87581807400C0E07400C0E013
:1001100012027F1205C275C0C0120558F58D759880
:100120005312F03E75C0FFE4F5A8F5C8D2ACD2C8B2
:10013000D2C9D2CCD2CBD2CDD2AFD2F8D2F9D2FC66
:100140001206ED1203D212015CA2C692C2E53BB4C4
:1001500026005004D2C480E8C2C480E410070F1007
:10016000060720080D20092622C2AF02FFF0C2AF09
:100170000100746412F0141204A49001DC12F05C0B
:1001800090021112F05C1204B1D2C3C2082274644E
:1001900012F0141204A49001DC12F05C9001ED1234
:1001A000F05CE55012F04A12F0419001F612F05C5A
:1001B000E55112F04A12F0419001FF12F05CE55255
:1001C00012F04A12F04190020912F05CE55312F06D
:1001D0004A12F0411204B1D2C3C20922A2A890402F
:1001E0004040E09A8684626A646103F00054784477
:1001F000656C61793D00506572736973743D00539D
:100200006C6F7474696D653D0054785461696C3D20
:10021000004B4953532D544E432076312E312C2020
:1002200073696D706C6578204E525A2077697468D6
:100230002065787465726E616C20636C6F636B69A6
:100240006E6720666F7220426179636F6D20636F05
:100250006D70617469626C65206D6F64656D730D9E
:100260000A636F646564206279204F4E31444453C1
:100270002C2032322F30332F313939380D0A0075A6
:10028000501E75514075520A755302C207C206C20C
:1002900008C209C205753D00753E28754900120265
:1002A000AE75340075350085353785343622853E88
:1002B00040853D3FE53F2402F53FE5403400F540F1
:1002C0007545007546001204D82230982DC0D0C064
:1002D00082C083C0E0C0001204B74014F874F0C0BC
:1002E000E07402C0E0E810003F20020F2001592214
:1002F000D000D0E0D083D082D0D032A846B803005E
:100300005024854083853F82F0A385834085823FCA
:10031000C082C083854683854582A38583468582C6
:1003200045D083D082228086F54CB40015C205E505
:1003300049B4FF02800EE548B44E005008C2C1D255
:100340000222D20122C2C522A84CB806028041C2B4
:1003500005B80102801CB80202801CB80302801C90
:10036000B80402801CB8FF028021B8FE028017C2C8
:100370000122F550C20122F551C20122F552C201FB
:1003800022F553C20122D207C20122D206C20122A3
:10039000C20110052720E70BB40002802FB4010230
:1003A000802D22C2AF9003C312F0209003C612F03A
:1003B000209003CA12F020D2AFD2052230C40630FA
:1003C000C506F50022420022F4520022D20822D2B1
:1003D0000922E53C602BC082C08385358385348249
:1003E000E0F538A3E0F539D083D082E5397015E522
:1003F0003870117534007535008535378534368091
:10040000D5020479E5362402F536E5373400F537B0
:100410001204A4C082C083853983853882A3858372
:1004200039858238D083D082E5397007E53870038A
:1004300002043812047C80DB1204B1C082C08385C0
:100440003783853682A3858337858236D083D082F1
:10045000C082C083853583853482E0F8A3E0F9D07B
:1004600083D082C2AFE53A28F53AE53B39F53BD275
:10047000AF853735853634153CD2C3228537838521
:100480003682E0A3858337858236B4C00974DB12D7
:10049000F03B74DC800AB4DB0774DB12F03B74DDE4
:1004A00012F03B22C2C374C012F03B740012F03B46
:1004B0002274C012F03B22E599C298B4C0028018A1
:1004C000100307B4DB10D203D322B4DC0474C08061
:1004D00005B4DD0274DBC322E5467007E545700311
:1004E00002054CC082C083853E83853D82E545F090
:1004F000A3E546F0D083D082E53D2402F53DE53EFC
:100500003400F53EE53D2545F53DE53E3546F53EF5
:10051000C2AFE5472545F547E5483546F548D2AF32
:10052000E53EB476004021754500754600C082C0A6
:1005300083853E83853D82E545F0A3E546F0D08383
:10054000D082753D00753E28054941AED200C201FA
:10055000C202C203D2C1D322C000C001C002C00384
:10056000C004C005C006C007C288C2895389F043D1
:100570008901C28DC28C758A00758C0020B0FDD2B5
:100580008C208DEE30B0FBC28CE58A2410F58AE514
:100590008C3400F58CE58CC454F0F8E58AC4540F13
:1005A0004875F00784700280C9F8E4C398C28CC211
:1005B0008DD007D006D005D004D003D002D001D012
:1005C000002275940075848575879C75A408C2E81F
:1005D000D294D29375D5FF75E5FF12F032753000D5
:1005E000753100753A00753B00753C007538007533
:1005F0003900120616754100754228754700754886
:1006000000754900754500754600C210C211C2D977
:10061000D2D81206162220EAFD4393028531338593
:100620003032E5322402F532E5333400F5338533D8
:10063000D38532D275B2F475B30075F20075F3024A
:10064000759369D2E943871022C0D0C082C083C0AD
:10065000E0D116D0E0D083D082D0D032C0D0C082DA
:10066000C083C0E0E53BB42600507720EAFD439309
:1006700002E5F224FFF5F2E5F334FDF5F3C082C0A4
:1006800083853183853082E5F2F0A3E5F3F0D083F2
:10069000D082E5302402F530E5313400F531E53023
:1006A000C395F2F530E53195F3F531E53AC395F2AE
:1006B000F53AE53B95F3F53BE531B426004021756D
:1006C000F20075F300C082C083853183853082E5F6
:1006D000F2F0A3E5F3F0D083D082753000753100DD
:1006E000053CD116D0E0D083D082D0D032054E2048
:1006F000111F20101E30C61BE54960179007F2E558
:100700004E93F8E551B50000500BE55212F01480FD
:100710006980698065C2E95387EFC2C7C2C0E550EE
:1007200012F014C211D21075A408C082C083854291
:1007300083854182E0F5E2A3E0F5E3D083D08285B2
:10074000E34B85E24AE5E3700CE5E2700875410091
:1007500075422880D5854244854143E5432402F50E
:1007600043E5443400F5448544A38543A275C2851E
:1007700075C300C2DBD2D9759299801EE54970A37A
:100780002090F7E55312F01412F032D1164387107F
:10079000C2EBD2C7D2C0C210C21122C0D0C082C028
:1007A00083C0E0D211854244854143C2DBD2D9D017
:1007B000E0D083D082D0D032C0D0C082C083C0E02D
:1007C000D211E547C3954AF547E548954BF54815DD
:1007D00049E543254AF543E544354BF54485444214
:1007E000854341C2DBD2D9D2C5D0E0D083D082D0FC
:1007F000D032377B5443BA770A69B77A56C22BD8BE
:100800004DE7E27D41ADED88D9ED503D6786FA1A9E
:1008100077A4FB46A442F233AFEDC47BD2CB940F56
:1008200052DDEF91548147FDF13BA2908DB593E2EB
:1008300064046A56652DA8B444E6B514CAA2D5FD71
:1008400071C859CE2D44135D8C420CDE00357808FA
:100850007D1EE972410AC343EEDCF10BE64ED7EB95
:10086000CF3388FB74FE38EED188F3F06E0E90D053
:10087000EB79E164DCE22E28D856E029CDD681213F
:1008800097A3E3E2D0B8A0F9E997C38C7A49C5856C
:10089000D6A0BBF1E3BFCDAB29DCEA352845BAE6EB
:1008A000EEA1D44AEA7932C6FBF6E17BCDECFD6DD0
:1008B0006619DDE4FAA68B1408F677F89EA06C831F
:1008C000FFB6C2FA6A49D69C312FB785110223D1EF
:1008D000C16BB105CCA14FAA9C2EEF3BD8F17E4154
:1008E000F06916BCF63174C4B0C6AC72EB901CF95A
:0208F0001221D3
:00000001FF
