:020000002100DD
:02000B00214191
:1001000078FE79CD7428311C753400753504753648
:100110000875370C75381075391480FEF531883242
:1001200089337530005388CC5389F0438901853277
:100130008C85338AD28CD2A9D2AF22C2A975C0FFD6
:1001400022C0D0C0E0C28C5389F043890185328C33
:1001500085338AD28CE530B53404C2C0800440FABD
:10016000D2C0B53504C2C1800440FAD2C1B536044C
:10017000C2C2800440FAD2C2B53704C2C380044070
:10018000FAD2C3B53804C2C4800440FAD2C4B53927
:1001900004C2C5800440FAD2C5B53101E404F5308B
:0501A000D0E0D0D032D8
:00000001FF
