*
* Leddemo
*
:03000000020100FA
:03001B00020200DE
:100100007F327E0A7D50AC07E4F536F530F531F5E7
:1001100032F533F534F53553890F438910C28FC258
:100120008E758DDC758B0CD28ED2ABD2AF7900E997
:100130002430F87614EE12F01409B906F2ED12F03C
:10014000147905E92430F87614EE12F01419B9FF89
:10015000F2ED12F0147F6475301475311475321499
:10016000753314753414753514ED12F014ED12F066
:0901700014ED12F0147F3280B48A
:10020000C0D0C082C083C0E0C0E0C28FC28E758DF6
:10021000FC758B68D28EE53604540FF536B5300088
:100220005004C2C08002D2C0B531005004C2C180A7
:1002300002D2C1B532005004C2C28002D2C2B5336C
:10024000005004C2C38002D2C3B534005004C2C4FB
:100250008002D2C4B535005004C2C58002D2C5DCCC
:100260002DAC07E4B5300280021530B531028002B2
:100270001531B5320280021532B5330280021533D2
:10028000B5340280021534B5350280021535D0E050
:09029000D0E0D083D082D0D0323E
:00000001FF
