:020000002100DD
:10010000758180C2AFE4F5F8F5C8F5A8313A51E63B
:10011000740071F890011B71FC80F5496B6B6520D0
:10012000656E2064652064696B6B6520656E206474
:0A01300065206F6C6966616E740053
:10013A00758200758300E582F0758301F07583028C
:10014A007403F0E4F520C32275820010073A100602
:10015A003210052A10042210031A10021210010A82
:10016A00100002D322853083C322853183C32285BE
:10017A003283C322853383C322853483C3228535E0
:10018A0083C322853683C322853783C322F5F0E5EC
:10019A0020B4FF02C322E5F031FA401A30001930C8
:1001AA00011D30022130032530042930052D300687
:1001BA003130073551B2D322858330D20080CE85C3
:1001CA008331D20180C7858332D20280C0858333CE
:1001DA00D20380B9858334D20480B2858335D205AF
:1001EA0080AB858336D20680A4858337D207809D6B
:1001FA00C000C001C002C003C083C0826026F503EC
:10020A00750200850200850082758302E02582F569
:10021A0001758300E0C3F5029501C395035013E508
:10022A0002B400DFD082D083D003D002D001D00044
:10023A00D322850182758301E500F0758300E5020A
:10024A00F0758302E503F0850282758301E501F00A
:10025A00850082758300E501F0850183758200D2ED
:10026A00AFD0E0D0E0D003D002D001D000C322C08A
:10027A0082C083858382758302E0D083D082C322C1
:10028A006026C083C082C000C001858382F875835E
:10029A0000E0C398C395824006758302E8F0C3D094
:1002AA0001D000D082D08322C000C001C0E0E58323
:1002BA006022F582758301E0F8758300E0F989828E
:1002CA00758301E8F08882758300E9F0D0E0D001F7
:0C02DA00D000C322D0E0D001D000D3221D
:1002E600C0E0200817740131FA4011858338D2081E
:1002F6007401712E500685388351B2D3D0E0C322E3
:10030600C083C082C0E0C20885388351B2C3D0E042
:10031600D082D08322C083C082853883853982F01B
:100326000539D082D083C322B401028051B40502BC
:100336008007B408028020D322C083C082C0E08533
:1003460038837582007420F005827450B582F6D029
:10035600E0D082D083C322C083C082C0E0C00085C3
:100366003883758200740271B77850E4E0A3C2E75F
:1003760071C7D8F7D000D0E0D082D083C322C000A6
:100386007803740371EB740512F014D8F5740271D6
:10039600EB742071B7740171B7740671B7740C7180
:1003A600B7740212F014713F715D753900D000C345
:1003B60022C0E0C4540F71EBD0E0540F71EB71DB37
:1003C60022C0E0C4540F444071EBD0E0540F4440C7
:1003D60071EB71DB22C0E075A1AFE5A120E3FB75EF
:1003E600A120D0E0224480F5A1547FF5A122E53971
:1003F600C322F539C322E4936005711BA380F7C3BA
:1004060022C0E0E5F09112D0E0911222C0E0C412C1
:10041600F0A7711BD0E012F0A7711B2212F0A77192
:020426001B2297
:00000001FF
