:020000002100DD
:02002300E18773
:03002B00020CD3F1
:03003300020D2398
:03004300020D3C6F
:03004B00020D2C77
:03000B000209D512
:10010000758180C2AFE4F5F8F5C8F5A87800F6D897
:10011000FD719C4031C212120804121F49121516BB
:100120004024C232C200856B8375821FE0B1484013
:1001300015856B83758231E071F9120AAE4007D2E2
:10014000B212099E801275C0C0741E12F01475C0E0
:10015000FF741E12F01480EE120A3C0530E53030B8
:10016000E5057530008002414B7400122063902138
:1001700056122067E557122090E5581220907420FF
:10018000121F81E56112207E7420121F81E5621228
:10019000207E7420121F817420302B027443121FA2
:1001A00081A21F74303400121F81742812206390C2
:1001B000215F122067757032E55060057430121FA0
:1001C00081757033E51860057431121F81757034C4
:1001D000E51960057432121F81757035E51A6005E6
:1001E0007433121F81757036E51B60057434121F5D
:1001F00081757037E51C60057435121F8175703884
:10020000E55160057436121F81757039E55260053D
:100210007437121F8175703AE51D60057438121F1E
:1002200081743C122063856B8375822EE012210C51
:10023000743A121F811582E012210C743A121F8148
:100240001582E012210C7408121F94A232B392C5D9
:10025000856B8375820FE0A2E09224A2E19225854E
:100260006B83758231E0F563856B83758231E07154
:10027000F92032051215442158856B83758210E0F0
:100280006033B401028018B402028027B4040280F3
:1002900039B40502611FC23274071217012158D107
:1002A000F3400EB41809C23274001217012158F13C
:1002B0003361806180120D571213534003120AF20A
:1002C000120AEB40031214066180120D57D1F3405D
:1002D0000FB4180CC2321215FA740012170121580B
:1002E000120AEB4038B4A929C0E0C083C082C00024
:1002F000C0017401915C7800790075E0A0120AF2E7
:10030000D001D000D082D083D0E074A8120AF2804D
:100310000CB4990774A4120AF28002B11421582077
:100320000005120BCBD200120D5712147340077444
:10033000A8120AF2803AB4020D7401915C403B7439
:10034000A0120AF2802AB4030D7401915C402B7450
:10035000A4120AF2801AB41817120BC3120C191245
:100360000AFAC200C2321215FA740012170121589B
:10037000120AEB40081214D98003D32158C3215824
:10038000856B83758211E0601130B30E741412F026
:0C03900014D2B2C23274001217012158BE
:10039C00758200758300E582F0758301F075830228
:1003AC007403F0E4F521C322758200100F3A100E8D
:1003BC0032100D2A100C22100B1A100A1210090AF6
:1003CC00100802D322853183C322853283C3228550
:1003DC003383C322853483C322853583C322853678
:1003EC0083C322853783C322853883C322F5F0E586
:1003FC0021B4FF02C322E5F0915C401A3008193099
:10040C00091D300A21300B25300C29300D2D300EF2
:10041C0031300F35B114D322858331D20880CE858B
:10042C008332D20980C7858333D20A80C085833456
:10043C00D20B80B9858335D20C80B2858336D20D30
:10044C0080AB858337D20E80A4858338D20F809DF4
:10045C00C000C001C002C003C083C0826026F50387
:10046C00750200850200850082758302E02582F505
:10047C0001758300E0C3F5029501C395035013E5A4
:10048C0002B400DFD082D083D003D002D001D000E0
:10049C00D322850182758301E500F0758300E502A6
:1004AC00F0758302E503F0850282758301E501F0A6
:1004BC00850082758300E501F0850183758200D289
:1004CC00AFD0E0D0E0D003D002D001D000C322C026
:1004DC0082C083858382758302E0D083D082C3225D
:1004EC006026C083C082C000C001858382F87583FA
:1004FC0000E0C398C395824006758302E8F0C3D030
:10050C0001D000D082D08322C000C001C0E0E583BE
:10051C006022F582758301E0F8758300E0F9898229
:10052C00758301E8F08882758300E9F0D0E0D00192
:0C053C00D000C322D0E0D001D000D322B8
:10054800C0E020101C7404915C401D858339740838
:10055800915C400F858340D0E0B174D2107401D112
:10056800A5C322853983B114D3D0E022B403028015
:1005780023B402028017B400028020C28EF58DF5E4
:100588008B758921758780759852D28E22759890BF
:100598007587802275989075870022C000C001C0B9
:1005A80002C003C004C005C006C007C083C082C023
:1005B800A8C2AF741412F014758911E4F588F58D8A
:1005C800F58BD2B020B0FD0000000000758D0075DD
:1005D8008B0ED28E208FE130B0FAC28EA88DA98BF7
:1005E800758D00758B0ED28E208FCD20B0FAC28EFD
:1005F800AA8DAB8B758D00758B0ED28E208FB9307E
:10060800B0F8C28EAC8DAD8BAE8DAF8BEF2BFFEEFD
:100618003AFEEF29FFEE38FEE8B50406E9B5050213
:1006280080024004A804A905E8B50206E9B503025A
:1006380080024004A802A903E954F07900D7C4FD58
:10064800C313C501C41354F8F500EFC399FFEE981E
:10065800FE8E8D8F8BE58D30E70C758840308FFDD1
:1006680075880030B0FBEDD0A8D082D083D007D0F9
:1006780006D005D004D003D002D001D000F404A1E4
:1006880074C083C082C0E0C2ACC210853983B11483
:10069800854083B114C3D0E0D082D08322B4010254
:1006A800800CB407028007B406028034D322C2AC9F
:1006B800E599C298E539F53A753B00F53C753D007A
:1006C800753E00753F00C299E540F543754400F555
:1006D80045754600754100754200D211D2ACC3225F
:1006E800C2ACE599C298C299D21122C083C082E5F2
:1006F8003E453F602E853A83853B82E0C0E0A3E516
:10070800392404B5830385398385833A85823BC2BE
:10071800ACE53F7002153E153FD2ACD0E0C3D082A5
:10072800D08322D3D2C1D082D08322C083C082C0DA
:10073800E0C000F8E5402408B441028036854383D0
:10074800854482E8F0A3C2AC858343858244E540B2
:100758002408B54303854043E5427002154115421C
:10076800301104C211D299D2ACD000D0E0D082D0DE
:1007780083C322D2ACD000D0E0D082D083D322C0B1
:10078800D0C083C082C0E0309830C2C1E53EB40416
:1007980004C2988025E599C298853C83853D82F0FE
:1007A800A3E5392404B5830385398385833C858291
:1007B8003DE53FB4FF02053E053F309936C299E555
:1007C80046B54409E545B54304D2118026854583DD
:1007D800854682E0F599C299A3858345858246E5D9
:1007E800402408B54503854045C211E5427002150D
:0C07F800411542D0E0D082D083D0D03236
:10080400201234740212045C402D858347758200E3
:10081400E5472402F8E4F0A3E8B583F9740412046C
:100824005C4014858348758200E5482404F8E4F0AC
:10083400A3E8B583F9C322D322301210854883126A
:1008440005148547831205144002C322D322FBAA50
:10085400838A82854883E4F00583E5F0F00583E824
:10086400F00583E9F08B82854783E07007EAF005A1
:1008740083F0800D0583E0F8EAF08882854883EAF6
:10088400F0C322FB854783F582E0602AFA8548831A
:100894008A82E08547838B82F070030583F0854864
:1008A400838A820583E0F5F00583E0F80583E0F9A7
:1008B400858283EBC322D322C083C082C0F08547E4
:1008C40083F582E0601775F00005F0854883F582B2
:1008D400E070F6E5F0D0F0D082D083C3227400D06B
:1008E400F0D082D083D322C0E0C0F0C083C000C067
:1008F40001C0E07400122063D0E012207E74201244
:100904001F81E5F012207E7420121F81E5831220DE
:100914007E7420121F81E812207E7420121F81E948
:1009240012207E7420121F81743C12206375820091
:100934007812D001D000D083D0F0D0E022C0E0C043
:10094400F0C083C000C001C0E07428122063D0E06E
:1009540012207E7420121F81E5F012207E74201272
:100964001F81E58312207E7420121F81E812207EED
:100974007420121F81E912207E7420121F81743C9E
:100984001220637582007812E0121F81A3D8F9D077
:0A09940001D000D083D0F0D0E022A3
:10099E00856B83758228E0F54AA3E0F549A3E0F55F
:1009AE004CA3E0F54B754D00754E005388CC538922
:1009BE00F043890185498C854A8AD28CD2A9D2AF5F
:1009CE0022C2A975C0FF22C0D0C0E075D018C28C5B
:1009DE005389F043890185498C854A8AD28CE86017
:1009EE0004D802D214E96004D902D215EA6004DAFE
:1009FE0002D216EB6004DB02D217EC6004DC02D2EA
:100A0E0018ED6004DD02D21BE54DB54B07E54EB582
:100A1E004C02800C400AD21C754D00754E008009A8
:100A2E00E54EB4FF02054D054ED0E0D0D032301C5D
:100A3E006EC21C856B83758228E0F54AA3E0F549EA
:100A4E00A3E0F54CA3E0F54B856B8375822CE00497
:100A5E00F0B43C028002401CE4F0A3E004F0B43C8D
:100A6E00028002400FE4F0A3E004F0B4180280020A
:100A7E004002E4F0E550600714F5507002D213E521
:100A8E0052600714F5527002D21A0553E553B40A98
:100A9E000E755300E55160E714F55170E2D219223C
:100AAE00201D24D21D755700755800C221C213C2D5
:100ABE0014C215C216C217C218C21E718E756117E6
:100ACE00756217D2C8D2C9C322301D0FC21D53C8BA
:100ADE00C4C2C8C2C9C2CBC2CDC322D322740211B2
:100AEE0087E5F022F5F074011152D32274011187BB
:100AFE00400512051480F574021187400512051485
:100B0E0080F574041187400512051480F5740311E5
:100B1E0087400512051480F57405118740051205EE
:100B2E001480F5301E06855983120514301F088572
:100B3E005A83120514C21F755000C213751800C2D5
:100B4E0014751900C215751A00C216751B00C2174E
:100B5E00751C00C218755100C219755200C21A7563
:100B6E001D00C21B755700755800C221C222C22B30
:100B7E00C322E4A2C6B392E0A2D992E1E5F0C32269
:100B8E0075940075848553879F43871CD294D293A6
:100B9E0075A408C2E875D5FF75E5FFD2D8D2C6C2D6
:100BAE001FC21EC220C221C2228500578500587165
:100BBE00CB4001C322C2E9C2C8C2C9C322C083C08E
:100BCE0082C0E0201E0A1203B44031858359D21E22
:100BDE00E5F420EAFBD2E9C222E48559D3F5D2F539
:100BEE00B375B2F4F5F2855982758302E0F5F375AB
:100BFE009368439301D2AFD2C8D2C9C3D0E0D0829A
:100C0E00D08322C2C0C2C7D220C322D2C0D2C7C292
:100C1E0020C32230202C201F2985835A885B895CB3
:100C2E00D21FD2D95392FE75C30075C2858583A398
:100C3E0075A20088E389E2759299D2AFD2CDD2CB5C
:100C4E00C322D32220D12920D53E30230FF5F085A3
:100C5E005D831204DB255DA85EB50002D322855E9E
:100C6E0083855F82E5F0F0A385835E85825FC32274
:100C7E00919640121203B4400D85835D85835E7597
:100C8E005F00D223C322D322302338C3E55E955DA5
:100C9E00F8A95FC083C000C001740112045C74A087
:100CAE007800790051F2D001D000D083855D831297
:100CBE0004EC74A851F2740112045C74A4780079E7
:100CCE000051F2C322C0D0C0E0C000C001C083C03A
:100CDE0082C0E0C0E0E5F2700215F315F2D0E0E557
:100CEE00F3F4F5F3E5F2F4F5F2D0E085598312044E
:100CFE00DB25F3F8A9F2740575F0A9855983115215
:100D0E000561C21EC22271CBD082D083D001D00029
:100D1E00D0E0D0D032C0D0C22271CBD0D032C0D031
:100D2E00C21FA85BA95C855A839121D0D032C0D056
:100D3E00C083C082C2CBC2CD855A83120514C21F96
:100D4E000562D082D083D0D0320560D2C630C60BB9
:100D5E00302B13D229C22AC22B800B202B08D22A69
:100D6E00C229D22B800020242D201F29E557B40044
:100D7E0002E10EB40102E155B40202E1DEB4030356
:100D8E00021062B40403021133B405030211C0B49D
:100D9E00060302121122B1AB202524800DE557B4B3
:100DAE0000028020B40102803822201F11E558B4C1
:100DBE0000028065B40302C163B40402C18C222018
:100DCE001FFCC1CD755700302A16C22A74011204B9
:100DDE005C400D740275F09D78007900115280010F
:100DEE0022755701740511BC40157405C0C8C2C8E0
:100DFE001187D0C84009740275F0A91152801930BC
:100E0E002916740112045C400FC229740275F09900
:100E1E0078007900115280AC227558007404118745
:100E2E004026E5F0B4A01E120514856B837582670B
:100E3E00E07007751A00D2168007751A00C216F5F3
:100E4E001A91118010120514740111874006E5F0F5
:100E5E007404115222755803301616C216740112FC
:100E6E00045C4019740275F0A37800790011528069
:100E7E000D740111874006E5F07404115222755865
:100E8E0004740111874037E5F0B4A00D740275F0BB
:100E9E00A378007900115280047404115274041165
:100EAE0087401BE5F0B4A4071205149119C127B4AD
:100EBE00A80491218008B4B00280F71205142220F4
:100ECE0020029111740111874035E5F0B4A00D7424
:100EDE000275F0A378007900115280047404115247
:100EEE00740411874019E5F0B4A405120514800F9F
:100EFE00B4A80491218008B4B00280F71205142220
:100F0E00755700740111874015E5F0B4B00C7403E9
:100F1E001152D22612127802106274041152740405
:100F2E0011874013E5F0B4A00B120514C22612125D
:100F3E0078021062120514301502C227302A07C239
:100F4E002A1212D080012275570174011187400FA9
:100F5E00E5F0B4B006740311528004740411527497
:100F6E000511BC40157405C0C8C2C81187D0C84051
:100F7E0009740275F0A911528055302952C2297494
:100F8E000112045C40F4740275F099780079001136
:100F9E0052856B83758264E07007755000D21380A2
:100FAE0007755000C213F550856B83758265E0702E
:100FBE0007751800D2148007751800C214F518743E
:100FCE000311BC4008D22612127802106280012250
:100FDE00755702740111874014E5F0B4B00B740319
:100FEE001152D226121278806B74041152301304EF
:100FFE00C213C227302A07C22A51D0020F5530150C
:10100E0004C215800530144BC21474031208BC4080
:10101E0006D2265178803D856B83758278E0F890F4
:10102E001313E560543F93B50002801B4019856B86
:10103E0083758266E07007751900D21580077519E1
:10104E0000C215F519800C302806C228517880048C
:10105E00020F0E2275570374011208874011E5F036
:10106E00B4B007740312085280057404120852308B
:10107E001304C213C22730171BC217D227856B83E6
:10108E00758269E07007751C00D2188007751C0008
:10109E00C218F51C301637C21630271BC227856BB7
:1010AE0083758269E07007751C00D2188007751C65
:1010BE0000C218F51C8017856B83758268E0700777
:1010CE00751B00D2178007751B00C217F51B301851
:1010DE0053C218856B8375826AE07007755100D212
:1010EE00198007755100C219F551302604C2262108
:1010FE00C0856B8375826BE07007755200D21A80C3
:10110E0007755200C21AF552302804C22880137493
:10111E000112045C400E740275F0A378007900127F
:10112E00085280012275570474011208874011E598
:10113E00F0B4B007740312085280057404120852FA
:10114E0074041208874036E5F0B4A00A740275F0F4
:10115E00A31208528027B4A805120C218053B4A400
:10116E00FD120514755200C21AC22874031208BC6F
:10117E004004D226803C755100C2198015301A06E3
:10118E00C21AD22880E5301928C219755200C21A27
:10119E00D228120C19120BCB856B8375826CE07002
:1011AE0007751D00D21B8007751D00C21BF51D8023
:1011BE00522275570574011208874011E5F0B4B03C
:1011CE000774031208528005740412085230192055
:1011DE00C219120C19C226856B8375826CE07007DA
:1011EE00751D00D21B8007751D00C21BF51D8013D7
:1011FE00740312085240DBB4B005120C21800312A6
:10120E0005142275570674011208874011E5F0B4D3
:10121E00B007740312085280057404120852301B72
:10122E0048C21B856B83758264E07007755000D2CF
:10123E00138007755000C213F550856B8375826558
:10124E00E07007751800D2148007751800C214F5E7
:10125E0018740112045C400F740275F099780079CD
:10126E0000120852020FDED21B22751800C214752E
:10127E001900C215751A00C216751B00C217751C0F
:10128E0000C218755100C219755200C21A751D00A0
:10129E00C21B856B83758267E07007751A00D216C4
:1012AE008007751A00C216F51A740112045C400C00
:1012BE00740275F09D78007901120852120BC30268
:1012CE000C11D227755000C213751800C21475196F
:1012DE0000C215751A00C216751B00C217751C00C8
:1012EE00C218755100C219755200C21A751D00C27E
:1012FE001B740112045C400C740275F09D78007929
:10130E000012085222E27D41ADED88D9ED503D67C5
:10131E0086FA1A77A4EF91548147FDF13BA2908D86
:10132E00B593E2640459CE2D44135D8C420CDE005D
:10133E003501087D1E88FE74FF38EED188F3F06EFD
:05134E000E90D0EB79C8
:101353001206F3404D302C4CB4C062E5654566601F
:1013630041856483E565041204EC8564837582001A
:10137300A865A96674A8C22CC083C082C000C0013E
:10138300C0E0E56312045C400D85836475660075F7
:101393006500D22CC22DD0E0D001D000D082D08302
:1013A300C322D322B4C0FBE56312045C40F48583FB
:1013B30064756600756500D22CC22D80E5B4DB042C
:1013C300D22D80DE302D10C22DB4DC0474C0800712
:1013D300B4DD0474DB8000C0E0E565B5630ED0E0E6
:1013E300856483120514C22C80B8C0E0E5642565CA
:1013F300F583856682D0E0F0E566B4FF02056505F6
:1014030066809FB4A94EE849604AE82583F8C08303
:1014130075820074C012073340FBE582B50110E505
:1014230083B5000B74C012073340FBD0838025E0E3
:10143300B4C00B74DB12073340FB74DC800EB4C002
:101443000B74DB12073340FB74DC8000120733405C
:0A145300FBA380C6120514C3222279
:10145D00202E04D22EC22FC322C22E302F06856716
:10146D0083120514C3221206F3405CFF120733B436
:10147D0018028054B40202804FB40302804AB40AA9
:10148D00028003B40D16302F3EC22F856783A868E6
:10149D00A969E849B40033120514802B202F12746A
:1014AD000312045C4021858367756800756900D25D
:1014BD002FE5672568F583856982EFF0A38582693D
:1014CD00E583C39567F568E4D322C322C083B4A92D
:1014DD0025C08390150A1220A2D083758200E84999
:1014ED00600CE0A3120733E97001181980F0901514
:1014FD00101220A2B1FAD083120514C3221B5B3344
:09150D00326D001B5B33306D00F0
:10151600C0E0203014740112045C400E85836B1207
:101526001A30756C80C231C232C3D0E02230300C22
:10153600C230C083856B83120514D083C322120682
:10154600F3F56D5002C322856B8375820EE030E1A0
:1015560005E56D120733E56DB41812756C82856B5F
:10156600837582807880E4F0A3D8FBC128E56CB44B
:101576008118856B83758280E0E56DB42F04D231C6
:10158600C1281220AEB45402D231856B8375820510
:10159600E0B1F4400EB56D0BE56CB4820280041523
:1015A6006C8049856B83758203E0B1F4400AB56DA2
:1015B60007856C82E4F0806A856B83758204E0B1EE
:1015C600F4400AB56D07856C82E4F08055E56DB48C
:1015D60020028018E56CB4FF03756D00856B83856A
:1015E6006C82E56D1220AEF0056C6036C322B480C5
:1015F60001C3B322C0D0C0E0C083C082856B8375AF
:101606008203E0B1F44003120733856B83758204CD
:10161600E0B1F44003120733D082D083D0E0D0D0BB
:10162600C322E56CB48002800F303111C231B1FAA9
:10163600756E00756C82D14C756C80C3227404F192
:1016460001756C80D322756E00856B83856C82E094
:10165600C3603BA882A983C0F0758318E56E23F5A5
:1016660082E493F5F0C0E0A3E493F583D08245F0DD
:10167600D0F06020D1DD5004056E80CD886CE493F7
:10168600A3B403FA74A0C0E07416C0E0E473740057
:10169600F101C3227404F101D32240F880A8156C2D
:1016A600C322856B83856C82E0F56D056C6002C391
:1016B60022D32278007900856B83856C82E0600DE9
:1016C60012F0AA400812F0B04008A380F085826CA0
:1016D600C32285826CD322C0E0C083C082C002E4EC
:1016E60093C3600EFA89A0E26007B50204A30880DE
:1016F600EED3D002D082D083D0E022F5F0856B8382
:1017060075820EE020E21C20E309E5F0122131B1DA
:10171600FA8010E5F0901DF393F58275831F122071
:05172600A2B1FAC3228C
:10180000D61DD91D651977197A19451D6C1DB21B96
:10181000DB1DDD1DAF1D0B1D1E1DDF1DE11D2D1A66
:10182000AF19B719071A101A52194919E91DE61DFF
:101830001B1A241ADD19E719F319FC19BC19C4196C
:10184000561840190F1BC51A801C9A1CE61CBF1C99
:10185000F91C8F19000026545500031216B940399F
:10186000B90036E8540F2323758319F582E493C039
:10187000E0A3E493C0E0A3E493C0E0A3E493C0E05A
:10188000A3856B83758228D0E0F0A3D0E0F0A3D0CD
:0B189000E0F0A3D0E0F0A3C322D322BD
:101900000064D00003E8FB342710FF8600141000A9
:1019100000C8E80007D0FD9A0019400000FAECCD9D
:1019200009C4FE1500216E8C014DF1960D05FE9047
:101930000032A00001F4F6671388FF0B4E20FFC3AE
:1019400026540003756A10819D26440003756A11B0
:10195000819D264300031216B94000D32212213183
:101960001215FAC322430003856B83856C82E06005
:1019700004056C80F3C322445400445000404B00E3
:1019800003C2B2D2327401121701D0E0D0E0222B90
:1019900046434C4153533D3F00039019A51220A2EA
:1019A0001215FAC322302C302C302C312E30002668
:1019B000415848414E470026415848002654585443
:1019C00041494C00265458540003756A64C32226CA
:1019D00050524941434B0003756A65C32226534C5C
:1019E0004F5454494D450026534C4F540003756ADB
:1019F00066C32226545844454C4159002654584445
:101A00000003756A67C32226415844454C4159007A
:101A1000264158440003756A68C322265045525334
:101A20004953540026500003756A78C3225A0003B4
:101A3000901A457800E493856BA0F2A308B800F5EE
:101A4000756A00C32200002B0D0A08021E0201075E
:101A50004632000A030002000000000000000501F9
:101A60000000000000111300000000140000D0640A
:101A7000000000000000034D4342313532000000F9
:101A80000000000000000000000000000000000056
:101A90000000000000000000000000000000000046
:101AA0000000000000000000001E05030502020502
:101AB0000A0000000000000000000000003F0000DD
:101AC0000000000000265500031216B950037404EC
:101AD000228548837582007900742A120733E582D3
:101AE0001220CC743A12073374201207337A10E0B4
:101AF0001220CCD90280137420BA0902742D120767
:101B0000330582DAEA1215FA80CF1215FAC32226BB
:101B10005600031216B95003740422901BA212201F
:101B2000A21215FA856B8375820EE0F5F0744512EA
:101B300007337430A2F134001207337420120733D4
:101B400074511207337430A2F23400120733742038
:101B500012073374561207337430A2F3340012079D
:101B6000331215FA856B83758200798074531207DE
:101B700033E582122131743A12073374201207338D
:101B80007A0AE0122131D90280137420BA06027455
:101B90002D1207330582DAEA1215FA80CF1215FAF0
:101BA000C3224143544956452050524F46494C4563
:101BB0003A004900031216B95003740422901C0C19
:101BC000B80002803F901C16B801028037B80202AC
:101BD0008032901C1BB80302802A901C28B8040293
:101BE0008022901C40B80502801A901C47B806025B
:101BF0008012901C50B80702800A901C6AB8080234
:101C00008002D3221220A21215FAC322534C49504B
:101C10002D415832350046464646005665722E2004
:101C2000312E3030707265005265762E2031322FA1
:101C3000382F323030312032303A30373A333900B1
:101C40004D4342313532003134373435363030008F
:101C5000426179636F6D20555343432073696D7002
:101C60006C6578206D6F64656D004F4E3144445350
:101C7000202D204A6F616368696D20456C656E0098
:101C80003D2700031216A8F81216A8B4270A856B80
:101C900083856A82E8F0C322D3223D0003856B83EB
:101CA000856C82E0B43F04056C80511216B9400E79
:101CB000856B83856A82E8F0E96002A3F0C3223F66
:101CC0003F0003C083C082C0E0C0F0856B83856A9B
:101CD00082E0F8A3E0F91220D41215FAD0F0D0E097
:101CE000D082D083C3223F270003856B83856A821D
:101CF000E01207331215FAC3223F0003856B838578
:101D00006A82E01221311215FAC32253000312161F
:101D1000B9400AD3E97006E8C2E7F56AC322560063
:101D200003C0F0C000C0011216B94012856B837564
:101D3000820EE0B80004C2E38002D2E3F0C3D00117
:101D4000D000D0F022450003C0F0C000C001121640
:101D5000B94012856B8375820EE0B80004C2E18041
:101D600002D2E1F0C3D001D000D0F022460003C07F
:101D7000F0C000C0011216B9402B856B8375820F2D
:101D8000E0B80006C2E0C2E18010B80106D2E0C2AD
:101D9000E18007B8020FD2E0D2E1F07400C3D001B5
:101DA000D000D0F0227404D3D001D000D0F0225162
:101DB0000003C0F0C000C0011216B94012856B8349
:101DC00075820EE0B80004C2E28002D2E2F0C3D015
:101DD00001D000D0F02241540042004C004D005888
:101DE000005900445200264C00264C434400031284
:101DF00016B92200030B101B212E3A3F03030303E5
:0F1E0000030303030303030303030303030300A9
:101F00004F4B00434F4E4E4543540052494E4700FD
:101F10004E4F2043415252494552004552524F5272
:101F200000434F4E4E4543542031323030004E4F27
:101F3000204449414C544F4E450042555359004EA0
:091F40004F20414E535745520059
:101F4900C0E0203319740112045C401285836FD2FA
:101F5900337401F1945007856F83120514D3D0E0CF
:101F6900C322C083C082C0E0C233856F83120514C7
:101F7900C3D0E0D082D08322C083C082856F83859D
:101F89007082F00570D082D083C322B401028053DD
:101F9900B405028007B408028020D322C083C0821E
:101FA900C0E0856F837582007420F005827450B596
:101FB90082F6D0E0D082D083C322C083C082C0E041
:101FC900C000856F8375820074021220227850E464
:101FD900E0A3C2E7122032D8F6D000D0E0D082D0F8
:101FE90083C322C00078037403122056740512F0CB
:101FF90014D8F47402115674201122740111227438
:10200900061122740C1122740212F014121FA51267
:102019001FC3757000D000C322C0E0C4540F11560D
:10202900D0E0540F1156114622C0E0C4540F444069
:102039001156D0E0540F44401156114622C0E075A4
:10204900A1AFE5A120E3FB75A120D0E0224480F5F2
:10205900A1547FF5A122E570C322F570C322E49350
:102069006006121F81A380F6C322C0E0E5F0117E4D
:10207900D0E0117E22C0E0C412F0A7121F81D0E087
:0E20890012F0A7121F812212F0A7121F81224F
:10209700E06006120733A380F7C322E493600612B9
:1020A7000733A380F6C322B47B02800B5009B461C7
:1020B70002800240029420C322C0E012F0A7120758
:1020C70033D0E0C322C411C0C411C0C322C0F01171
:1020D700EEE58245836006A882A98311D4E5F02442
:1020E70030120733D0F022900000E501B40005E577
:1020F70000B40A00500388F022C3E8940AF8E99470
:1021070000F9A380E5C0E0C0F075F06484243012C4
:102117001F81E5F075F00A842430121F81E5F02451
:1021270030121F81D0F0D0E0C322C0E0C0F075F0BC
:1021370064842430120733E5F075F00A84243012E2
:102147000733E5F02430120733D0F0D0E0C3225034
:10215700482D535441543A0054494D455253203A5F
:0D21670020202020202020202020202000EB
:00000001FF
